:100000000C94B3020C94DB020C94DB020C946B098D
:100010000C946B090C946B090C94DB020C94DB02BE
:100020000C94DB020C94DB020C94DB020C94DB02DC
:100030000C94DB020C94DB020C94DB020C94DB02CC
:100040000C9421090C94DB020C9417080C94F10712
:100050000C94DB020C94DB020C94DB020C94DB02AC
:100060000C94DB020C94DB0247534D205368696506
:100070006C6420737461727465640052454144205D
:1000800053455454494E47533A205345434F4E44E9
:100090002052554E00524541442053455454494E38
:1000A00047533A2046495253542052554E00544526
:1000B0004D5020323A200054454D5020313A200016
:1000C00050494E3A20004155544F2041434B3A206D
:1000D000004155544F20504F5745523A2000536528
:1000E00074757020436F6D706C6574650041542B9E
:1000F000434E4D493D322C322C302C302C300041B7
:10010000542B434D47463D31004E4F200059455337
:1001100000504F5745524544204F4E3A2020202052
:10012000200054454D5020323A202020202020200D
:1001300020200054454D5020313A202020202020FE
:1001400020202000204D6F64756C652052756E6E06
:10015000696E6720002020206E6574776F726B20B7
:100160002121212020002020726567697374657247
:10017000656420746F20002020737563636573735A
:1001800066756C6C792020002020202053494D207A
:100190006361726420202020002020206E65747727
:1001A0006F726B2E2E2E2020200020202053494DD0
:1001B000206361726420746F20200020202052652B
:1001C000676973746572696E672020007375636375
:1001D00065737366756C6C792021212100202020C5
:1001E000205475726E6564206F6E20202000475386
:1001F0004D2F47505253206D6F64756C6520002E53
:100200002E2E2E2E2E3E002E2E2E2E2E3E002E2E4A
:100210003E0047534D2F47505253206D6F64756C0D
:100220006520002020205475726E696E67206F6E05
:10023000202020002020203230313033363431313C
:10024000372020200020454B57554E494645205326
:100250002E204E2E200020202032303131333634F3
:10026000303739202020004E5249414755204A4F0F
:1002700053454D4152494100202020323031313325
:10028000363430363520202000455A454E57414EF1
:100290004E4520492E20432E200044657369676E29
:1002A00065642062793A20202020005374617274C2
:1002B000696E67204D6F64756C653E00506F7765A1
:1002C000726564204F6E3A204E4F0D0A00506F77D2
:1002D00065726564204F6E3A205945530D0A006ED1
:1002E000657770696E006175746F61636B0061752D
:1002F000746F706F776572004F464600706F776558
:10030000726F6666004F4E00706F7765726F6E0099
:1003100041542B434D47443D312C34002B434D5425
:10032000002B434D5400554E415554484F52495AA5
:1003300045442055534552204143434553532121C1
:1003400021007374617475730073657474656D70E6
:10035000320073657474656D7031006E6577706915
:100360006E006175746F61636B006175746F706F9F
:1003700077657200706F7765726F666600706F7771
:1003800065726F6E002041636B6E6F776C6564679A
:10039000656400436F6D6D616E6420002069732099
:1003A0007468652070726573656E742076616C7513
:1003B00065206265696E67207573656400546865C1
:1003C0002076616C756520676976656E20666F7250
:1003D0002000526566726967657261746F72206988
:1003E0007320616C726561647920706F77657265E6
:1003F000642000206E6F742041636B6E6F776C65B4
:100400006467656400436F6D6D616E642000000079
:100410000000240027002A0000000008000201005C
:1004200000030407000000000000000000000000BE
:10043000250028002B0000000000230026002900D2
:10044000040404040404040402020202020203037A
:100450000303030301020408102040800102040882
:10046000102001020408102000407A10F35A00A066
:10047000724E18090010A5D4E80000E8764817006D
:1004800000E40B54020000CA9A3B000000E1F505AD
:10049000000080969800000040420F000000A086F7
:1004A00001000000102700000000E8030000000029
:1004B0006400000000000A000000000001000000CD
:1004C00000002C76D888DC674F0823DFC1DFAE59E7
:1004D000E1B1B796E5E3E453C63AE651997696E87A
:1004E000E6C28426EB898C9B62ED407C6FFCEFBCFE
:1004F0009C9F40F2BAA56FA5F490055A2AF75C9329
:100500006B6CF9676DC11BFCE0E40D47FEF520E65E
:10051000B500D0ED902E0300943577050080841E41
:10052000080000204E0A000000C80C333333330F9C
:10053000986E12831141EF8D2114893BE65516CF39
:10054000FEE6DB18D1844B381BF77C1D901DA4BB45
:10055000E424203284725E228100C9F124ECA1E5FA
:100560003D27FD19EB1911241FBECFEFD8E0DEBFE8
:10057000CDBF11E0A0E0B1E0EAE5F5E402C00590EE
:100580000D92AA3BB107D9F723E0AAEBB1E001C075
:100590001D92AC3AB207E1F712E0C2EBD2E004C020
:1005A0002197FE010E94351BC13BD107C9F70E946C
:1005B000B6100C94A0220C9400000895CF92DF9204
:1005C000EF92FF920F931F93CF93DF936C017A0109
:1005D0008B01C0E0D0E0CE15DF0589F0D8016D9128
:1005E0008D01D601ED91FC910190F081E02DC601C5
:1005F0000995892B11F47E0102C02196ECCFC70129
:10060000DF91CF911F910F91FF90EF90DF90CF90EE
:100610000895FC01918D828D981761F0828DDF0124
:10062000A80FB11D5D968C91928D9F5F9F73928FE5
:1006300090E008958FEF9FEF0895FC01918D828DDA
:10064000981731F0828DE80FF11D858D90E00895A7
:100650008FEF9FEF0895FC01918D228D892F90E0FF
:10066000805C9F4F821B91098F739927089588ECB6
:1006700092E00E942B0321E0892B09F420E0822FD5
:100680000895FC01848DDF01A80FB11DA35ABF4F4F
:100690002C91848D90E001968F739927848FA68981
:1006A000B7892C93A089B1898C9180648C93938DA8
:1006B000848D981306C00288F389E02D80818F7D98
:1006C00080830895EF92FF920F931F93CF93DF9350
:1006D000EC0181E0888F9B8D8C8D981305C0E88993
:1006E000F989808185FD24C0F62E0B8D10E00F5F07
:1006F0001F4F0F731127E02E8C8DE8120CC00FB620
:1007000007FCFACFE889F989808185FFF5CFCE0112
:100710000E944103F1CF8B8DFE01E80FF11DE35ADA
:10072000FF4FF0820B8FEA89FB898081806207C0CE
:10073000EE89FF896083E889F989808180648083FC
:1007400081E090E0DF91CF911F910F91FF90EF90AA
:100750000895CF93DF93EC01888D8823C9F0EA894F
:10076000FB89808185FD05C0A889B9898C9186FDAA
:100770000FC00FB607FCF5CF808185FFF2CFA889A7
:10078000B9898C9185FFEDCFCE010E944103E7CF5F
:10079000DF91CF91089580E090E0892B29F00E94AD
:1007A000370381110C94000008958E3008F08E50AC
:1007B00087702091000190E4299F90011124822BE1
:1007C00080937C0080917A00806480937A0080918D
:1007D0007A0086FDFCCF809178002091790090E02E
:1007E000922B08953FB7F8948091C3029091C40270
:1007F000A091C502B091C60226B5A89B05C02F3FA7
:1008000019F00196A11DB11D3FBFBA2FA92F982F36
:100810008827820F911DA11DB11DBC01CD0142E0B1
:10082000660F771F881F991F4A95D1F70895209169
:10083000BC013091BD012817390771F49091BA01BC
:100840008091BB01981741F0E091BA01F0E0E054CB
:10085000FE4F808190E008958FEF9FEF08950895F7
:100860001F93CF93DF93DC015C962D913C915D97B4
:100870002115310539F481E090E013969C938E9315
:1008800012973DC05196ED91FC91529750969C91D4
:100890005097892F80951FB75E964C915E9741FBCC
:1008A000772770F941FD6095F8944081772311F026
:1008B000492B01C048234083E9012197F1F748E023
:1008C000508160FF02C0592B01C058235083E901B9
:1008D0002197F1F76695415099F7772321F09081A0
:1008E0008923808303C08081982B90831FBF5C96EF
:1008F0008D919C915D970197F1F721E030E0C9015E
:10090000DF91CF911F9108952091BC013091BD01DD
:100910002817390771F48091BB012091BA0190E04A
:1009200082509F4F821B91096EEF70E00E94EB1A7C
:10093000089580E090E008952091BC013091BD01C0
:1009400028173907C9F49091BA018091BB01981713
:1009500099F0E091BA01F0E0E054FE4F20818091DF
:10096000BA0190E001966EEF70E00E94EB1A80935E
:10097000BA01822F90E008958FEF9FEF08950E94B3
:100980004A1E0F931F93CF93DF93EC0188819981C7
:10099000009729F02A813B812617370788F48B01BD
:1009A0006F5F7F4F0E94801D009761F0998388835D
:1009B0001B830A832C813D81232B11F4FC011082BF
:1009C00081E001C080E0DF91CF911F910F910895E8
:1009D000AF92BF92CF92DF92EF92FF920F931F934D
:1009E000CF93DF931F92CDB7DEB75C017B018B0104
:1009F0006C0184E0C80ED11CF80161918F01C50122
:100A000069830E9453226981681719F0C5010E9409
:100A10005B22FFEFAF1ABF0AAC14BD0469F7C70130
:100A20000F90DF91CF911F910F91FF90EF90DF908A
:100A3000CF90BF90AF900895CF93DF93FC012481B6
:100A40003581232B71F0FB01DC01CD91DC916081BC
:100A50007181CE010E947F1E009719F08C1B9D0BA7
:100A600002C08FEF9FEFDF91CF910895FC012481A9
:100A700035816217730720F480819181009729F4F2
:100A80001092C70287EC92E00895860F971F089591
:100A9000FC0124813581232B31F421E0611571059E
:100AA000A1F0FB0108C0FC018081918161157105F5
:100AB00031F421E0FC018081882339F005C00E94D7
:100AC000601E21E0892B09F020E0822F0895FC01AF
:100AD00024813581FB01448155812417350721F597
:100AE000FC0180819181FB0160817181009719F087
:100AF00061157105A1F46115710549F0232BB1F061
:100B0000FB01808190E09195819591090AC0009741
:100B100069F0232B59F0FC01808190E002C00E9413
:100B2000601E21E0892B19F020E001C021E0822F16
:100B30000895EF92FF920F931F93CF93DF93611568
:100B4000710511F480E01EC08B01EC01CB010E9405
:100B5000C01E0097B1F02C813D817C01E20EF31E96
:100B6000B701CE010E94C104882361F32881398135
:100B70008C819D81B801820F931F0E94B91EFD8256
:100B8000EC8281E0DF91CF911F910F91FF90EF9068
:100B90000895EF92FF920F931F93CF93DF93FC0181
:100BA000248135816115710511F480E019C041156A
:100BB0005105A9F07B01EC018A01020F131FB80156
:100BC0000E94C104882389F3288139818C819D8109
:100BD000B701820F931F0E94691E1D830C8381E061
:100BE000DF91CF911F910F91FF90EF900895CF93D8
:100BF000DF9300D0CDB7DEB769831A8241E050E0C1
:100C0000BE016F5F7F4F0E94C9050F900F90DF916B
:100C1000CF9108950F931F93CF93DF938C01EB0136
:100C2000FC01808191810097B1F068817981611523
:100C3000710579F0428153812C813D814217530720
:100C400040F00E94691E8C819D81F8019583848308
:100C500013C00E94E81C88819981F80191838083E8
:100C60008A819B81938382838C819D8195838483F8
:100C7000198218821B821A821D821C82DF91CF91F9
:100C80001F910F910895CF93DF93EC018881998193
:100C9000009711F00E94E81C198218821D821C82A4
:100CA0001B821A82DF91CF910895CF93DF93EC01DD
:100CB0006115710561F0FB0101900020E9F73197A2
:100CC000AF01461B570B0E94C905811103C0CE011D
:100CD0000E944306CE01DF91CF910895CF93DF9319
:100CE000EC01FB0144815581608171810E94C9053D
:100CF000811103C0CE010E944306CE01DF91CF9146
:100D00000895EF92FF920F931F93CF93DF93EC011F
:100D10007B018A01BA010E94C104811104C0CE0185
:100D20000E94430607C01D830C83B7018881998107
:100D30000E94691ECE01DF91CF911F910F91FF900C
:100D4000EF900895CF93DF93EC016115710559F091
:100D5000FB0101900020E9F73197AF01461B570BCB
:100D60000E94810602C00E944306CE01DF91CF910E
:100D70000895FC01808191810C94E81CEF92FF9210
:100D80000F931F93CF93DF93EC01198218821B827C
:100D90001A821D821C826115710509F18B01CB013C
:100DA0000E94C01E7C01BC01CE010E94C1048111C1
:100DB00009C0CE01DF91CF911F910F91FF90EF906D
:100DC0000C944306FD82EC82B80188819981DF9101
:100DD000CF911F910F91FF90EF900C94B91EDF916E
:100DE000CF911F910F91FF90EF900895FB01DC01CF
:100DF00011961C921E9213961C921E921297159693
:100E00001C921E9214978617970759F06081718182
:100E10006115710521F0448155810C9481060C9473
:100E200043060895FC0111821082138212821582FA
:100E300014826115710551F0FB0101900020E9F762
:100E40003197AF01461B570B0C9481060895BF9252
:100E5000CF92DF92EF92FF920F931F93CF93DF9386
:100E60007C016B018A01E9012417350720F4812FE9
:100E70008901C42FD82F6CE371E0C7010E941207CB
:100E8000D60114968D919C91159708171907D0F4E7
:100E90008C179D0708F4EC01D601ED91FC91119798
:100EA000EC0FFD1FB08010824D915C91BA01600F74
:100EB000711FC7010E94A206D601ED91FC91EC0FB3
:100EC000FD1FB082C701DF91CF911F910F91FF905D
:100ED000EF90DF90CF90BF900895EF92FF920F9325
:100EE0001F93CF93DF938C017B01C0E0D0E0F7012B
:100EF000EC0FFD1F6491662361F0D801ED91FC9128
:100F00000190F081E02DC8010995892B11F02196FF
:100F1000EECFCE01DF91CF911F910F91FF90EF9017
:100F200008956115710579F0FB0101900020E9F742
:100F30003197AF01461B570BDC01ED91FC9102800C
:100F4000F381E02D099480E090E008950F931F93C2
:100F5000CF93DF93EC010E946D078C016AE371E08F
:100F6000CE010E949107800F911FDF91CF911F91B9
:100F70000F9108950F931F93CF93DF93EC01E881B6
:100F8000F9810190F081E02D09958C016AE371E00F
:100F9000CE010E949107800F911FDF91CF911F9189
:100FA0000F9108950F931F93CF93DF93EC01E88186
:100FB000F981DB0114964D915C9115976D917C91AF
:100FC0000280F381E02D09958C016AE371E0CE0186
:100FD0000E949107800F911FDF91CF911F910F9178
:100FE00008951F920F920FB60F9211242F933F93E3
:100FF0004F935F936F937F938F939F93AF93BF9321
:10100000EF93FF9388EC92E00E944103FF91EF91F0
:10101000BF91AF919F918F917F916F915F914F9110
:101020003F912F910F900FBE0F901F9018951F9218
:101030000F920FB60F9211242F938F939F93EF93DC
:10104000FF93E091D802F091D9028081E091DE0215
:10105000F091DF0282FD12C090818091E1028F5FEA
:101060008F732091E202821751F0E091E102F0E0EB
:10107000E853FD4F958F8093E10201C08081FF917D
:10108000EF919F918F912F910F900FBE0F901F9016
:10109000189590E0FC01E85EFB4F3491FC01EC5A9E
:1010A000FB4F2491FC01E05CFB4FE491EE2309F43B
:1010B0003BC0332339F1333091F038F43130A9F0AB
:1010C000323001F584B58F7D12C0373091F0383061
:1010D000A1F03430B9F4809180008F7D03C08091FD
:1010E00080008F77809380000DC084B58F7784BD9A
:1010F00009C08091B0008F7703C08091B0008F7DD0
:101100008093B000F0E0EE0FFF1FE45DFB4FA59170
:10111000B4918FB7F894EC91611103C020952E2300
:1011200001C02E2B2C938FBF0895CF93DF93EC013A
:1011300060E08E810E94490861E08E810E9449082A
:1011400060E08E810E9449088BE891E00197F1F7F9
:10115000DF91CF910895CF93DF9390E0FC01EC5A9B
:10116000FB4F2491FC01E05CFB4F8491882361F1EB
:1011700090E0880F991FFC01E25FFB4FC591D4916D
:10118000FC01E45DFB4FA591B491611109C09FB7CB
:10119000F8948881209582238883EC912E230BC0BC
:1011A000623061F49FB7F8943881822F8095832351
:1011B0008883EC912E2B2C939FBF06C08FB7F89499
:1011C000E8812E2B28838FBFDF91CF9108958F92D6
:1011D0009F92AF92BF92CF92DF92EF92FF926B01FC
:1011E0007C010E94F2034B015C01C114D104E104B3
:1011F000F104F1F00E94F203DC01CB018819990996
:10120000AA09BB09883E9340A105B10570F321E00E
:10121000C21AD108E108F10888EE880E83E0981E12
:10122000A11CB11CC114D104E104F10419F7DDCFF4
:10123000FF90EF90DF90CF90BF90AF909F908F90F6
:1012400008951F920F920FB60F9211242F933F9380
:101250008F939F93AF93BF938091BF029091C002F1
:10126000A091C102B091C2023091BE0223E0230FCF
:101270002D3720F40196A11DB11D05C026E8230FCE
:101280000296A11DB11D2093BE028093BF029093D0
:10129000C002A093C102B093C2028091C302909198
:1012A000C402A091C502B091C6020196A11DB11D54
:1012B0008093C3029093C402A093C502B093C60268
:1012C000BF91AF919F918F913F912F910F900FBE42
:1012D0000F901F9018951F920F920FB60F92112426
:1012E0002F933F934F935F936F937F938F939F932E
:1012F000AF93BF93EF93FF93E091BC01F091BD01D9
:10130000309709F453C0968DA685B785858591FFE2
:1013100004C09C91892329F449C09C91892309F038
:1013200045C0A389B4899C918589809589238C9334
:10133000868997890197F1F7608D718DA685B785AC
:10134000558538E020E0CB010197F1F7822F90E03E
:1013500095958795282F4C91452309F020683150A9
:1013600091F7868D81FD20958091BB0190E00196DB
:101370006EEF70E00E94EB1A9091BA01981749F055
:10138000A091BB01B0E0A054BE4F2C938093BB0151
:1013900003C0868D8160868F828D938D0197F1F7D2
:1013A000A389B4899C918589892B8C93FF91EF91B6
:1013B000BF91AF919F918F917F916F915F914F916D
:1013C0003F912F910F900FBE0F901F901895E091B5
:1013D000BC01F091BD01E817F90769F4A389B4894C
:1013E0009C918589809589238C931092BD011092E0
:1013F000BC0181E0089580E00895CF92DF92EF92E2
:10140000FF920F931F93CF93DF937C016C0187E0D2
:10141000C80ED11CC0E0D0E0062F10E0B8010C2EA1
:1014200002C0759567950A94E2F76170F6018191A3
:101430006F010E9449082196C430D10579F7C70190
:10144000DF91CF911F910F91FF90EF90DF90CF90A0
:101450000C949508CF92DF92EF92FF920F931F9317
:10146000CF93DF93EC01F62E642F8C810E94490804
:101470008D818F3F19F060E00E9449088F850F2D04
:1014800010E084FF25C06E0187E0C80ED11CE12C5E
:10149000F12CB8010E2C02C0759567950A94E2F7FD
:1014A0006170F60181916F010E944908FFEFEF1A08
:1014B000FF0A88E0E816F10461F7CE01DF91CF91D1
:1014C0001F910F91FF90EF90DF90CF900C949508B3
:1014D000B80184E0759567958A95E1F7CE010E9481
:1014E000FD096F2DCE01DF91CF911F910F91FF90DC
:1014F000EF90DF90CF900C94FD0941E00E942A0A02
:1015000081E090E0089540E00C942A0A61E00E9496
:10151000830A8BE39FE10197F1F70895CF92DF9261
:10152000EF92FF920F931F93CF93DF93EB017B0119
:1015300024E0E20EF11C8B016C01C61AD70AC60129
:10154000800F911F0E945322F80181938F01EE15A5
:10155000FF05A9F7CE01DF91CF911F910F91FF9069
:10156000EF90DF90CF9008950C945B220C9453225F
:101570008091BE01882309F43CC180910901823029
:1015800009F451C02CF4882351F0813051F10895B1
:10159000833009F4E3C0843009F402C1089581E086
:1015A00090E00E94B60A60910A01813061F483E004
:1015B00090E00E94B40A64E070E080E090E00E9455
:1015C000E70862E00BC082E090E00E94B40A64E0A9
:1015D00070E080E090E00E94E70861E081E090E048
:1015E00000C184E090E00E94B60A60910B01813056
:1015F00061F486E090E00E94B40A64E070E080E06C
:1016000090E00E94E70862E00BC085E090E00E9455
:10161000B40A64E070E080E090E00E94E70861E0D6
:1016200084E090E0DEC087E090E00E94B60A60E0CF
:1016300070E0813009F048C08CE993E00E943605E3
:10164000FC0160818CE090E00E94B40A64E070E0EC
:1016500080E090E00E94E70861E070E08CE993E0B0
:101660000E943605FC0160818DE090E00E94B40A82
:1016700064E070E080E090E00E94E70862E070E0E3
:101680008CE993E00E943605FC0160818EE090E0D9
:101690000E94B40A64E070E080E090E00E94E708F5
:1016A00063E070E08CE993E00E943605FC01608104
:1016B0008FE090E00E94B40A64E070E080E090E087
:1016C0000E94E70862E047C08CE993E00E9436057B
:1016D000FC01608188E090E00E94B40A64E070E060
:1016E00080E090E00E94E70861E070E08CE993E020
:1016F0000E943605FC01608189E090E00E94B40AF6
:1017000064E070E080E090E00E94E70862E070E052
:101710008CE993E00E943605FC0160818AE090E04C
:101720000E94B40A64E070E080E090E00E94E70864
:1017300063E070E08CE993E00E943605FC01608173
:101740008BE090E00E94B40A64E070E080E090E0FA
:101750000E94E70861E087E090E043C080E190E00C
:101760000E94B60A65E071E0813061F485E190E0A5
:101770000E94E80464E070E080E090E00E94E708E6
:1017800062E00BC081E190E00E94E80464E070E058
:1017900080E090E00E94E70861E080E190E021C0F5
:1017A00089E190E00E94B60A61E071E0813061F465
:1017B0008EE190E00E94E80464E070E080E090E058
:1017C0000E94E70862E00BC08AE190E00E94E80412
:1017D00064E070E080E090E00E94E70861E089E169
:1017E00090E00E94B40A64E070E080E090E00C9425
:1017F000E70808950F931F93CF93DF9300D000D095
:1018000000D0CDB7DEB78C0163E871E0CE01019660
:101810000E94120762EA73E0CE0101960E946E06F2
:101820006BE871E00E945506BC018DE793E00E94D1
:10183000D207CE0101960E94B90664E670E080E00E
:1018400090E00E94E708B8018DE793E00E94D2077C
:1018500064E670E080E090E00E94E7086AE18DE7CE
:1018600093E00E94BA0764E670E080E090E00E9496
:10187000E7086AE371E08DE793E00E94910768E86A
:1018800073E180E090E00E94E70826960FB6F89496
:10189000DEBF0FBECDBFDF91CF911F910F91089595
:1018A0008F929F92AF92BF92CF92DF92EF92FF9270
:1018B0000F931F93CF93DF93CAE0D0E0C12CD12CBC
:1018C00076018EE00E94D5035C018FE00E94D50373
:1018D0008C01B501BB0C880B990B0E94362120E0CE
:1018E00030E040E05FE30E9495214B015C01B801CC
:1018F000110F880B990B0E94362120E030E040E068
:101900005FE30E9495219B01AC01C501B4010E94D7
:101910003B1B9B01AC01C701B6010E943C1B6B0144
:101920007C016AE070E080E090E00E94E708219787
:1019300041F620E030E040E251E4C701B6010E94E8
:10194000A81BDF91CF911F910F91FF90EF90DF9037
:10195000CF90BF90AF909F908F9008958F929F925D
:10196000AF92BF92CF92DF92EF92FF920F931F93AD
:10197000CF93DF93813049F0823009F055C0C12CFC
:10198000D12C7601CAE0D0E00EC0DF91CF911F913B
:101990000F91FF90EF90DF90CF90BF90AF909F900E
:1019A0008F900C94500C80E10E94D5035C0181E182
:1019B0000E94D5038C01B501BB0C880B990B0E94CA
:1019C000362120E030E040E05FE30E9495214B01AA
:1019D0005C01B801110F880B990B0E94362120E0A1
:1019E00030E040E05FE30E9495219B01AC01C5011E
:1019F000B4010E943B1B9B01AC01C701B6010E94D0
:101A00003C1B6B017C016AE070E080E090E00E948A
:101A1000E708219741F620E030E040E251E4C701B9
:101A2000B6010E94A81B03C060E070E0CB01DF910B
:101A3000CF911F910F91FF90EF90DF90CF90BF90CB
:101A4000AF909F908F900895EF92FF920F931F9306
:101A5000CF93DF93CDB7DEB7A7970FB6F894DEBF6D
:101A60000FBECDBF7C01862F0E94AE0C1BA21AA216
:101A70001DA21CA21FA21EA28E010F5F1F4F21E0FC
:101A800043E00E94991EBC01CE0182960E94A206EC
:101A9000BE016E5D7F4FC8010E94F6066DE871E0E1
:101AA000C8010E945506BC01C7010E94F606C80184
:101AB0000E94B906CE0182960E94B906C701A79678
:101AC0000FB6F894DEBF0FBECDBFDF91CF911F914F
:101AD0000F91FF90EF9008958F929F92AF92BF92D7
:101AE000CF92DF92EF92FF920F931F93CF93DF93EA
:101AF00000D000D000D0CDB7DEB75C016B014A0149
:101B00006CE371E00E94120700E010E0F6018481AE
:101B1000958108171907C8F5B801C6010E94360556
:101B2000FC0180818B3371F5980140E050E0B601F3
:101B3000CE0101967C010E942707AE14BF0421F05C
:101B4000B701C5010E940A06C7010E94B906F60145
:101B500024813581C90101970817190779F0A80177
:101B60004F5F5F4FB601C7010E942707B701C6014B
:101B70000E940A06C7010E94B90607C081E0F4016D
:101B8000808303C00F5F1F4FC1CF60E971E0CE01BA
:101B900001960E941207B501CE0101960E946E06C1
:101BA000BC0188EC92E00E94D207CE0101960E940F
:101BB000B906C50126960FB6F894DEBF0FBECDBF9D
:101BC000DF91CF911F910F91FF90EF90DF90CF9019
:101BD000BF90AF909F908F9008950F931F93CF93D6
:101BE000DF93CDB7DEB762970FB6F894DEBF0FBEB6
:101BF000CDBF8C0165E074E0CE0107960E94BE0661
:101C000063EF73E0CE0101960E94BE06BE01695FDC
:101C10007F4FCE010D960E94F606B801CE010D96BB
:101C20000E946E06BE016F5F7F4F0E946E060E948B
:101C3000FA0BCE010D960E94B906CE0101960E94C4
:101C4000B906CE0107960E94B90662960FB6F894BF
:101C5000DEBF0FBECDBFDF91CF911F910F910895D1
:101C60000F931F93CF93DF93CDB7DEB72C970FB6AB
:101C7000F894DEBF0FBECDBF8C0162ED73E0CE01E4
:101C800001960E94BE06BE016F5F7F4FCE01079690
:101C90000E94F606B801CE0107960E946E060E94C9
:101CA000FA0BCE0107960E94B906CE0101960E945A
:101CB000B9062C960FB6F894DEBF0FBECDBFDF91EC
:101CC000CF911F910F9108950F931F93CF93DF939F
:101CD000CDB7DEB762970FB6F894DEBF0FBECDBFAB
:101CE0008C016DEB73E0CE0107960E94BE066CE995
:101CF00073E0CE0101960E94BE06BE01695F7F4F70
:101D0000CE010D960E94F606B801CE010D960E94F6
:101D10006E06BE016F5F7F4F0E946E060E94FA0B37
:101D2000CE010D960E94B906CE0101960E94B90619
:101D3000CE0107960E94B90662960FB6F894DEBFF0
:101D40000FBECDBFDF91CF911F910F9108950F93DB
:101D50001F93CF93DF93CDB7DEB762970FB6F8949A
:101D6000DEBF0FBECDBF8C0163E973E0CE010796E5
:101D70000E94BE0665E873E0CE0101960E94BE0691
:101D8000BE01695F7F4FCE010D960E94F606B80135
:101D9000CE010D960E946E06BE016F5F7F4F0E94BE
:101DA0006E060E94FA0BCE010D960E94B906CE0176
:101DB00001960E94B906CE0107960E94B906629666
:101DC0000FB6F894DEBF0FBECDBFDF91CF911F914C
:101DD0000F910895643008F063E0909178036917DB
:101DE00010F06FEF690FE62FF0E0EB59FC4F94898C
:101DF000682F690F606885E693E00C94830AEF9280
:101E0000FF920F931F93CF93DF93EC01623018F092
:101E10008F8588608F876B8B1C8A80E48D8B80E137
:101E20008E8B80E58F8B61E08C810E94AB088D8169
:101E30008F3F19F061E00E94AB0861E08E810E9443
:101E4000AB087E0187E0E80EF11C00E010E08F8512
:101E500084FD03C084E090E002C088E090E00817B1
:101E600019074CF461E0F70181917F010E94AB08F2
:101E70000F5F1F4FECCF8BE39DE00197F1F760E020
:101E80008C810E94490860E08E810E9449088D8102
:101E90008F3F19F060E00E9449086F8564FD1DC006
:101EA00063E0CE010E94FD090BE416E4C80101972E
:101EB000F1F763E0CE010E94FD09C8010197F1F737
:101EC00063E0CE010E94FD0983E592E00197F1F7FE
:101ED00062E0CE010E94FD0916C06062CE010E9440
:101EE000830A8BE496E40197F1F76F856062CE0177
:101EF0000E94830A83E592E00197F1F76F856062A3
:101F0000CE010E94830A6F856062CE010E94830A1F
:101F100084E0888B6CE0CE010E94830ACE010E948F
:101F2000860A82E0898B66E0CE01DF91CF911F9116
:101F30000F91FF90EF900C94830A8F929F92AF9233
:101F4000BF920F931F93CF93DF93CDB7DEB7A197C7
:101F50000FB6F894DEBF0FBECDBF19A2423008F411
:101F60004AE08E010F5D1F4F842E912CA12CB12CC5
:101F7000A50194010E94FF1AE62FB901CA01015080
:101F80001109EA3014F4E05D01C0E95CD801EC937A
:101F9000232B242B252B61F7B80188EC92E00E94BB
:101FA0009107A1960FB6F894DEBF0FBECDBFDF91AB
:101FB000CF911F910F91BF90AF909F908F900895F8
:101FC0004F925F926F927F928F929F92AF92BF9249
:101FD000CF92DF92EF92FF926B017C019B01AC01EB
:101FE0000E944E1C882319F06CEA71E01AC0460169
:101FF0005701E894B7F82FEF3FEF4FE75FE7C501D0
:10200000B4010E944E1C811112C02FEF3FEF4FE729
:102010005FE7C501B4010E942F21181644F460EB5C
:1020200071E088EC92E00E9491077C018AC02FEF5A
:102030003FEF4FE75FE4C701B6010E94491C181645
:102040001CF464EB71E0EDCF2FEF3FEF4FE75FEC57
:10205000C701B6010E942F2187FDF3CF20E030E0B9
:10206000A901C701B6010E942F2187FF11C0E0918D
:10207000C802F091C9020190F081E02D6DE288EC78
:1020800092E009955C01F7FAF094F7F8F09402C039
:10209000A12CB12C2AE037ED43EA5BE3C701B6017E
:1020A0000E943C1B2B013C010E941A1C6B017C010D
:1020B0000E9434219B01AC01C301B2010E943B1B71
:1020C0002B013C014AE0C701B6010E949D0F7C0133
:1020D000EA0CFB1C68EB71E088EC92E00E9491072F
:1020E000E80EF91E20E030E040E251E4C301B20105
:1020F0000E9495212B013C010E941A1C4B01A12C2E
:10210000B12C4AE0C501B4010E949D0FE80EF91EF2
:10211000C501B4010E9434219B01AC01C301B2018D
:102120000E943B1B20E030E040E251E40E949521F8
:102130000E941A1C80E090E04AE00E949D0FE80E89
:10214000F91E6AE371E088EC92E00E9491078E0D1F
:102150009F1DFF90EF90DF90CF90BF90AF909F902A
:102160008F907F906F905F904F900895CF93DF9303
:10217000CDB7DEB7A5970FB6F894DEBF0FBECDBFC3
:10218000789484B5826084BD84B5816084BD85B552
:10219000826085BD85B5816085BD80916E0081605E
:1021A00080936E0010928100809181008260809304
:1021B0008100809181008160809381008091800006
:1021C0008160809380008091B10084608093B10031
:1021D0008091B00081608093B00080917A0084602B
:1021E00080937A0080917A00826080937A00809157
:1021F0007A00816080937A0080917A008068809371
:102200007A001092C10061E084E00E94AB0861E0B6
:1022100084E00E94490861E085E00E94AB0860E02C
:1022200085E00E94490861E086E00E94AB0860E01A
:1022300086E00E94490861E080E00E94AB0860E00F
:1022400080E00E94490861E089E00E94AB0864E0F8
:1022500085E693E00E94FF0E609175036E7F6093A8
:102260007503686085E693E00E94830A60917503B8
:102270006D7F60937503686085E693E00E94830A32
:1022800060E080E00E94EA0E6BEA72E085E693E08F
:102290000E946D0761E080E00E94EA0E6AE972E048
:1022A00085E693E00E946D0762E080E00E94EA0EFE
:1022B00069E872E085E693E00E946D0763E080E0E4
:1022C0000E94EA0E68E772E085E693E00E946D07DF
:1022D0006CED75E080E090E00E94E70862E080E04D
:1022E0000E94EA0E67E672E085E693E00E946D07C1
:1022F00063E080E00E94EA0E66E572E085E693E026
:102300000E946D076CED75E080E090E00E94E708A8
:1023100062E080E00E94EA0E65E472E085E693E008
:102320000E946D0763E080E00E94EA0E64E372E0C1
:1023300085E693E00E946D076CED75E080E090E02B
:102340000E94E70885E693E00E94860A60E080E04C
:102350000E94EA0E63E272E085E693E00E946D0758
:1023600061E080E00E94EA0E62E172E085E693E0BF
:102370000E946D0762E080E00E94EA0E6EE072E06B
:1023800085E693E00E946D0764EF71E080E090E0E5
:102390000E94E70867E072E085E693E00E946D071F
:1023A00064EF71E080E090E00E94E7086FEF71E079
:1023B00085E693E00E946D0760E089E00E9449088D
:1023C00068EE73E080E090E00E94E70861E089E059
:1023D0000E94490860ED77E080E090E00E94E70805
:1023E00060E089E00E944908E091D802F091D902AA
:1023F00082E08083E091D402F091D5021082E091D6
:10240000D602F091D70287E680831092E002E09135
:10241000DC02F091DD0286E08083E091DA02F09147
:10242000DB02808180618083E091DA02F091DB023F
:10243000808188608083E091DA02F091DB02808104
:1024400080688083E091DA02F091DB0280818F7DE9
:10245000808368E670E088EC92E00E94A60785E63B
:1024600093E00E94860A6EEE71E085E693E00E949A
:102470006D0761E080E00E94EA0E6DED71E085E697
:1024800093E00E946D0762E080E00E94EA0E6CEC2F
:1024900071E085E693E00E946D0768EE73E080E0EE
:1024A00090E00E94E70885E693E00E94860A6BEBC5
:1024B00071E085E693E00E946D0761E080E00E9494
:1024C000EA0E6AEA71E085E693E00E946D0762E039
:1024D00080E00E94EA0E69E971E085E693E00E94DF
:1024E0006D0760E177E280E090E00E94E70885E612
:1024F00093E00E94860A68E871E085E693E00E9416
:102500006D0761E080E00E94EA0E67E771E085E612
:1025100093E00E946D0762E080E00E94EA0E66E6AA
:1025200071E085E693E00E946D0763E080E00E9421
:10253000EA0E65E571E085E693E00E946D0768EEBE
:1025400073E080E090E00E94E70880E090E00E9465
:10255000B60A883F09F0A5C06BE770E088EC92E00E
:102560000E94A60781E090E00E94B60A813019F42B
:1025700082E090E004C0823031F483E090E00E9479
:10258000B60A80930A0184E090E00E94B60A813086
:1025900019F485E090E004C0823031F486E090E0E8
:1025A0000E94B60A80930B0187E090E00E94B60A71
:1025B000813021F56CE371E08CE993E00E94A20682
:1025C00088E090E00E94B60A682F8CE993E00E94B0
:1025D000F70589E090E00E94B60A682F8CE993E045
:1025E0000E94F7058AE090E00E94B60A682F8CE905
:1025F00093E00E94F7058BE090E025C0823051F512
:102600006CE371E08CE993E00E94A2068CE090E01C
:102610000E94B60A682F8CE993E00E94F7058DE0CE
:1026200090E00E94B60A682F8CE993E00E94F705BB
:102630008EE090E00E94B60A682F8CE993E00E9439
:10264000F7058FE090E00E94B60A682F8CE993E0CE
:102650000E94F70580E190E00E94B60A813029F4DB
:1026600065E071E081E190E006C0823031F465E020
:1026700071E085E190E00E948E0A89E190E00E947D
:10268000B60A813029F461E071E08AE190E006C089
:10269000823041F561E071E08EE190E00E948E0AA7
:1026A00021C065E970E088EC92E00E94A60781E015
:1026B0008093BE0110E0109309010E94B80A1F5FC9
:1026C0001530C9F71092BE018FEF8093090168EFB2
:1026D00080E090E00E94B40A64E070E080E090E066
:1026E0000E94E708109298031092970310929603A5
:1026F0001092950310929403109293038DEC90E046
:1027000090939A038093990390918903963108F0EE
:1027100057C025E530E030939403209393032BECCE
:1027200030E0309396032093950320E930E0309316
:1027300098032093970320916800983050F031E07F
:102740009E3008F430E081E001C0880F3A95EAF746
:1027500001C084E0822B80936800983038F09E306E
:1027600040F0963148F020E030E008C02DE630E03F
:1027700005C02BE630E002C02CE630E03093910338
:1027800020939003983030F481E001C0880F9A952F
:10279000EAF70EC0292F30E09E3018F42850310996
:1027A00002C02E50310981E001C0880F2A95EAF756
:1027B000809392038091990390919A030197F1F786
:1027C0008091970390919803892B21F18091BC010E
:1027D0009091BD0123E08D379207E1F0009711F051
:1027E0000E94E70980919B038E7F80939B03109248
:1027F000BB011092BA018DE793E09093BD018093E5
:10280000BC01E0919003F09191039081809192033B
:10281000892B80836FEF70E08DE793E00E94A6071D
:1028200064E670E080E090E00E94E7086DEE70E002
:102830008DE793E00E94A60764E670E080E090E0F8
:102840000E94E70881E0809300016EED70E088EC63
:1028500092E00E94A60761ED70E088EC92E00E9491
:102860006D0760910A0170E080E090E04AE00E940C
:102870009D0F6AE371E088EC92E00E94910766EC9C
:1028800070E088EC92E00E946D0760910B0170E0AF
:1028900080E090E04AE00E949D0F6AE371E088ECDE
:1028A00092E00E94910760EC70E088EC92E00E9458
:1028B0006D076CE973E088EC92E00E94D20767EB49
:1028C00070E088EC92E00E946D07609105017091C4
:1028D000060180910701909108010E94E00F6EEAC5
:1028E00070E088EC92E00E946D07609101017091A8
:1028F000020180910301909104010E94E00F6AE0BF
:1029000088EC92E00E94BA0785E693E00E94860A6E
:1029100064E471E085E693E00E946D0761E080E089
:102920000E94EA0E63E371E085E693E00E946D0782
:1029300062E080E00E94EA0E62E271E085E693E0E8
:102940000E946D0763E080E00E94EA0E61E171E0A1
:1029500085E693E00E946D0794E0F92E61E08EE039
:102960000E94EA0E6DE371E085E693E00E94910714
:1029700061E089E00E94EA0E61E0CE0101960E94CA
:10298000240D4D815E8169817A8185E693E00E9404
:10299000DE02CE0101960E94B90662E08EE00E943E
:1029A000EA0E6DE371E085E693E00E94910762E034
:1029B00089E00E94EA0E62E0CE0101960E94240D99
:1029C0004D815E8169817A8185E693E00E94DE0215
:1029D000CE0101960E94B90663E08DE00E94EA0EE6
:1029E0008091BF01882319F06DE071E002C069E0B9
:1029F00071E085E693E00E946D0764EF71E080E08E
:102A000090E00E94E7080E94500C82E00E94AE0C09
:102A10008DE793E00E948404181619060CF0E6C3B3
:102A20006CE371E0CE0107960E9412078DE793E0F8
:102A30000E9484041816190684F48DE793E00E941E
:102A40009C04682FCE0107960E94F7056AE070E0AB
:102A500080E090E00E94E708E9CF60E471E0CE01F9
:102A600001960E941207BE01695F7F4FCE01019659
:102A70000E946E06BC0188EC92E00E94D207CE0153
:102A800001960E94B90661E273E0CE0101960E94B0
:102A9000BE06BE016F5F7F4FCE0107960E941C05E8
:102AA0008C01CE0101960E94B9066CE371E017FD1E
:102AB000B4C082EA93E00E94A2066CE173E0CE010A
:102AC00001960E94BE06BE016F5F7F4FCE01079642
:102AD0000E941C058C010B5F1F4FCE0101960E94C6
:102AE000B906B801CE0107960E943605FC01808127
:102AF0008B3279F0B801CE0107960E943605FC01B1
:102B0000808198012F5F3F4F69018D3009F0D7C355
:102B10001FC08091A6039091A703892B59F76801E4
:102B2000B601CE0107960E943605FC0180818232F3
:102B300009F3B601CE0107960E943605FC016081BB
:102B400082EA93E00E94F705FFEFCF1ADF0AE8CF91
:102B5000B901CE0107960E943605FC0180818A30BA
:102B600009F0ADC32B853C85A8014E5F5F4FBE01C8
:102B7000695F7F4FCE0101960E942707BE016F5FFC
:102B80007F4FCE0107960E940A06CE0101960E9451
:102B9000B9060F8118850115110509F02AC380E0D7
:102BA000860181119ECF66E471E0CE0101960E94FC
:102BB000120762EA73E0CE0101960E946E06BC0124
:102BC00088EC92E00E94D207CE0101960E94B906DD
:102BD0006FE471E0CE0101960E941207BE01695FA9
:102BE0007F4FCE0101960E946E06BC0188EC92E0F8
:102BF0000E94D207CE0101960E94B9068091A603D9
:102C00009091A7030E9708F002C360E173E08DE78F
:102C100093E00E94A6076CE371E0CE014F960E94FC
:102C20001207CE0107960E94B9068BA19CA1892BA1
:102C300009F4D8C261E086E00E9449086CED75E0B5
:102C400080E090E00E94E7081DA2AE014B5D5F4F5F
:102C5000BE01615E7F4FCE0101960E946C0D6CE952
:102C600073E0CE0101960E946705182FCE010196F0
:102C70000E94B906112309F4A3C283E0C82EDD2403
:102C8000DA948DA18111AAC26CE371E0CE0149965C
:102C90000E941207AE014B5D5F4FBE01615E7F4F28
:102CA000CE0143960E946C0D00E010E08F89988D54
:102CB00008171907F0F5B801CE0143960E943605B2
:102CC000FC0180818D3391F52F89388DC9010197E1
:102CD00008171907A9F0A8014F5F5F4FBE016D5E8D
:102CE0007F4FCE0101960E942707BE016F5F7F4F85
:102CF000CE0149960E940A06CE0101960E94B906AD
:102D0000980140E050E0BE016D5E7F4FCE0101961C
:102D10000E942707BE016F5F7F4FCE0143960E943E
:102D20000A06CE0101960E94B90603C00F5F1F4F2D
:102D3000BDCF6DE773E0CE0101960E94BE06BE01D5
:102D40006F5F7F4FCE0143960E946705182FCE011B
:102D500001960E94B906112329F168E073E0CE01C3
:102D600007960E94BE068091BF0181110FC080911D
:102D70000A018111E0C061E00E94490861E085E03C
:102D80000E94490881E08093BF01B6C280910B0187
:102D9000882309F4D0C080910A018111CCC065E07C
:102DA00073E037C064E773E0CE0101960E94BE066F
:102DB000BE016F5F7F4FCE0143960E946705182FBB
:102DC000CE0101960E94B906112361F16CEF72E009
:102DD000CE0107960E94BE068091BF01882371F044
:102DE00080910A018111A7C060E00E94490860E05B
:102DF00085E00E9449081092BF017EC280910B01BC
:102E0000882309F498C080910A01811194C068EF69
:102E100072E0CE0101960E94BE06CE0101960E948C
:102E2000300E94C06AE673E0CE0101960E94BE06A1
:102E3000BE016F5F7F4FCE0143960E946705182F3A
:102E4000CE0101960E94B906112311F16EEE72E0D7
:102E5000CE0107960E94BE0665E571E0CE01499657
:102E60000E944805182F882329F080910A018823A1
:102E700009F427C267E571E0CE0149960E94480532
:102E8000882309F44EC080910A018130C1F519C22E
:102E900062E673E0CE0101960E94BE06BE016F5F3E
:102EA0007F4FCE0143960E946705182FCE010196F1
:102EB0000E94B906112309F450C066EE72E0CE01FB
:102EC00007960E94BE0665E571E0CE0149960E9414
:102ED0004805182F882329F080910B01882309F4D5
:102EE000FBC167E571E0CE0149960E944805882341
:102EF00009F46BC280910B01813009F4EDC181119D
:102F000016C080910B01882391F0BE01695F7F4F4D
:102F1000CE0101960E94F606CE0101960E94640E33
:102F200015C0112321F080910A01813051F3809165
:102F30000B01882379F0BE01695F7F4FCE010196B6
:102F40000E94F606CE0101960E94ED0DCE0101967B
:102F50000E94B906CE01079628C16BE573E0CE0149
:102F600001960E94BE06BE016F5F7F4FCE01439661
:102F70000E946705182FCE0101960E94B906112301
:102F800009F461C06CE371E0CE010D960E94120756
:102F90006FED72E0CE0107960E94BE0600E010E0E1
:102FA0008D8D9E8D08171907F0F5B801CE01499651
:102FB0000E943605FC0180818C3291F52D8D3E8D6D
:102FC000C901019708171907A9F0A8014F5F5F4FC2
:102FD000BE01675E7F4FCE0101960E942707BE01AA
:102FE0006F5F7F4FCE010D960E940A06CE010196BB
:102FF0000E94B906980140E050E0BE01675E7F4F35
:10300000CE0101960E942707BE016F5F7F4FCE0160
:1030100049960E940A06CE0101960E94B90603C095
:103020000F5F1F4FBDCFBE01635F7F4FCE0149963B
:103030000E946705882309F470C18D8D9E8D0497C9
:1030400009F06BC17EC162E573E0CE0101960E947A
:10305000BE06BE016F5F7F4FCE0143960E9467059B
:10306000182FCE0101960E94B906112319F0C092C3
:1030700009019DC069E473E0CE0101960E94BE067D
:10308000BE016F5F7F4FCE0143960E946705182FE8
:10309000CE0101960E94B906112319F0F0920901A0
:1030A00086C062E473E0CE0101960E94BE06BE01B6
:1030B0006F5F7F4FCE0143960E946705182FCE01A8
:1030C00001960E94B906112309F45EC061E0CE01A9
:1030D00001960E94240D69E571E0CE0107960E94D9
:1030E0001207BE016F5F7F4FCE0107960E946E06EA
:1030F0006AE371E00E945506BC01CE010D960E9464
:10310000F606CE0107960E94B906CE0101960E94EE
:10311000B90662E0CE0101960E94240D6EE671E0D0
:10312000CE0107960E941207BE016F5F7F4FCE014E
:1031300007960E946E066AE371E00E945506FC0144
:103140004481558160817181CE010D960E94C9052F
:10315000CE0107960E94B906CE0101960E94B906DB
:103160008091BF01882319F06DEC72E002C06CEB16
:1031700072E0CE010D960E949905CE010D960E9437
:10318000FA0BCE010D9611C080910B01882379F0C6
:10319000BE016D5E7F4FCE0101960E94F606CE0104
:1031A00001960E94ED0DCE0101960E94B906CE0156
:1031B00043960E94B906CE0149960E94B90661CD98
:1031C00066E273E0CE0101960E94BE06CE01019632
:1031D0000E94FA0BCE0101960E94B90660E086E0DB
:1031E0000E944908CE014F960E94B9060E94CB0367
:1031F000B5CBF8018081882309F4D1CC082E000CCE
:10320000990B0E944F1EF80181938F01F2CF00E0CD
:1032100010E08B859C8508171907E8F5B801CE01E9
:1032200007960E943605FC018081803291F0B8013A
:10323000CE0107960E943605FC0180818D3049F051
:10324000B801CE0107960E943605FC0180818A30C4
:10325000F9F44B855C8504171507C0F48F819885B8
:10326000415051095C874B87401B510BB8016F5F80
:103270007F4F680F791F800F911F0E94701EEF8192
:10328000F8858B859C85E80FF91F10820150110984
:103290000F5F1F4FBECF60E173E08DE793E00E94A8
:1032A000A60718A21F8E1AA219A21CA21BA2BE0159
:1032B000695F7F4FCE014F960E940A06B2CC81E033
:1032C0006FCC80910A0191E0892780930A01909345
:1032D000BE01109209010AC090910B0181E098276C
:1032E00090930B018093BE01809309010E94B80A5C
:1032F0001092BE01D092090180910B01882309F43C
:1033000029CEBE01695F7F4FCE0101960E94F6066D
:10331000CE0101960E94A70E19CEBE01695F7F4FB4
:10332000CE0101960E94F606CE0101960E94ED0D97
:10333000CE0101960E94B906CE0107960E94B906F9
:1033400020CF6CE973E0CE0149960E946705811198
:103350002CC0698D7A8D6115710539F044E050E01B
:103360008CE993E00E94810604C08CE993E00E94FE
:10337000430681E08093BE0182E0809309010E94B0
:10338000B80A1092BE01D092090180910B018823E6
:1033900099F2BE01695F7F4FCE0101960E94F60649
:1033A000CE0101960E94A70EC3CF80910B01882306
:1033B00019F2BE01695F7F4FCE0101960E94F606A9
:1033C000CE0101960E94640EB3CF112309F4AFCD54
:1033D00080910B01AACD8EE291E090937E038093C1
:1033E0007D038DE793E00E94E7098CE993E00E945A
:1033F000B90682EA93E00C94B906CF92DF92EF927D
:10340000FF921092CB021092CA0298EEC92E93E05E
:10341000D92EE12CF12CC092CC02D092CD02E092B8
:10342000CE02F092CF0286E191E09093C9028093A0
:10343000C80285EC90E09093D5028093D40284EC8E
:1034400090E09093D7028093D60280EC90E0909326
:10345000D9028093D80281EC90E09093DB028093B4
:10346000DA0282EC90E09093DD028093DC0286EC3D
:1034700090E09093DF028093DE021092E1021092BE
:10348000E2021092E3021092E4026CE371E082EA3D
:1034900093E00E94120767EA71E08CE993E00E94D2
:1034A00012071092800310927F03C0928103D09282
:1034B0008203E0928303F09284038EE291E0909382
:1034C0007E0380937D0310929403109293031092D5
:1034D00096031092950310929803109297031092FE
:1034E0009A031092990360919B036E7F6D7F6093A6
:1034F0009B036695617081E0682788E00E94490817
:1035000061E088E00E94AB08ECE5F4E0E491E09330
:103510008D03E8E4F4E0E491F0E0EE0FFF1FE45DDA
:10352000FB4F8591949190938F0380938E0360E07D
:1035300087E00E94AB0880919B0381FD04C061E09D
:1035400087E00E94490887E080938903EBE5F4E077
:10355000E491E0938A03E7E4F4E0E491F0E0EE0F15
:10356000FF1FEA5CFB4F8591949190938C038093AD
:103570008B03109268031092670386E291E09093A8
:1035800066038093650382E0809369038FEF8093E5
:103590006A0383E080936B038AE080936C038BE083
:1035A00080936D038CE080936E038DE080936F03B6
:1035B00010927003109271031092720310927303B1
:1035C0001092740361E085E693E0FF90EF90DF9046
:1035D000CF900C94FF0E97FB072E16F4009407D0A3
:1035E00077FD09D00E94211B07FC05D03EF4909581
:1035F00081959F4F0895709561957F4F0895A1E241
:103600001A2EAA1BBB1BFD010DC0AA1FBB1FEE1F5C
:10361000FF1FA217B307E407F50720F0A21BB30BA7
:10362000E40BF50B661F771F881F991F1A9469F723
:1036300060957095809590959B01AC01BD01CF017F
:103640000895AA1BBB1B51E107C0AA1FBB1FA617E9
:10365000B70710F0A61BB70B881F991F5A95A9F73B
:1036600080959095BC01CD010895EE0FFF1F059048
:10367000F491E02D09945058BB27AA270E94531BB0
:103680000C9419220E940B2238F00E94122220F082
:1036900039F49F3F19F426F40C9408220EF4E095B7
:1036A000E7FB0C940222E92F0E942A2258F3BA1752
:1036B000620773078407950720F079F4A6F50C9448
:1036C0004C220EF4E0950B2EBA2FA02D0B01B90160
:1036D00090010C01CA01A0011124FF27591B99F088
:1036E000593F50F4503E68F11A16F040A22F232F94
:1036F000342F4427585FF3CF469537952795A795E4
:10370000F0405395C9F77EF41F16BA0B620B730B8A
:10371000840BBAF09150A1F0FF0FBB1F661F771FFB
:10372000881FC2F70EC0BA0F621F731F841F48F4B0
:10373000879577956795B795F7959E3F08F0B0CF39
:103740009395880F08F09927EE0F97958795089520
:103750000E94BC1B0C9419220E94122258F00E9455
:103760000B2240F029F45F3F29F00C940222511102
:103770000C944D220C9408220E942A2268F399236B
:10378000B1F3552391F3951B550BBB27AA2762175D
:103790007307840738F09F5F5F4F220F331F441F6A
:1037A000AA1FA9F335D00E2E3AF0E0E832D091509E
:1037B0005040E695001CCAF72BD0FE2F29D0660F8B
:1037C000771F881FBB1F261737074807AB07B0E8CE
:1037D00009F0BB0B802DBF01FF2793585F4F3AF0D4
:1037E0009E3F510578F00C9402220C944D225F3FCD
:1037F000E4F3983ED4F3869577956795B795F7955A
:103800009F5FC9F7880F911D9695879597F9089541
:10381000E1E0660F771F881FBB1F621773078407DD
:10382000BA0720F0621B730B840BBA0BEE1F88F7EC
:10383000E09508950E94322288F09F5798F0B92FA2
:103840009927B751B0F0E1F0660F771F881F991FD5
:103850001AF0BA95C9F714C0B13091F00E944C2209
:10386000B1E008950C944C22672F782F8827B85F19
:1038700039F0B93FCCF3869577956795B395D9F72D
:103880003EF490958095709561957F4F8F4F9F4F37
:1038900008950E94712108F48FEF08950E9471210C
:1038A000880B990B0895CF93DF938230910510F424
:1038B00082E090E0E091AA03F091AB0320E030E0D9
:1038C000C0E0D0E0309711F140815181481759078D
:1038D000C0F04817590761F482819381209719F04D
:1038E0009B838A832BC09093AB038093AA0326C04B
:1038F0002115310519F04217530718F49A01BE013A
:10390000DF01EF010280F381E02DDCCF21153105CD
:1039100009F1281B390B2430310590F412968D9152
:103920009C9113976115710521F0FB0193838283AC
:1039300004C09093AB038093AA03FD01329644C068
:10394000FD01E20FF31F81939193225031092D93D2
:103950003C933AC02091A8033091A903232B41F452
:1039600020910E0130910F013093A9032093A803F9
:1039700020910C0130910D012115310541F42DB735
:103980003EB74091100150911101241B350BE0917D
:10399000A803F091A903E217F307A0F42E1B3F0B35
:1039A0002817390778F0AC014E5F5F4F24173507B1
:1039B00048F04E0F5F1F5093A9034093A8038193D3
:1039C000919302C0E0E0F0E0CF01DF91CF91089544
:1039D0000F931F93CF93DF93009709F48CC0FC01E2
:1039E0003297138212820091AA031091AB03011542
:1039F000110581F420813181820F931F2091A8034A
:103A00003091A9032817390779F5F093A903E093BA
:103A1000A80371C0D80140E050E0AE17BF0750F4D2
:103A200012962D913C911397AD012115310509F1A5
:103A3000D901F3CF9D01DA01338322836081718143
:103A4000860F971F8217930769F4EC01288139814B
:103A5000260F371F2E5F3F4F318320838A819B8142
:103A600093838283452B29F4F093AB03E093AA035D
:103A700042C01396FC93EE931297ED014991599130
:103A80009E01240F351FE217F30771F480819181A5
:103A9000840F951F029611969C938E938281938139
:103AA00013969C938E931297E0E0F0E0D801129663
:103AB0008D919C911397009719F0F8018C01F6CF26
:103AC0008D919C9198012E5F3F4F820F931F209103
:103AD000A8033091A9032817390769F4309729F40E
:103AE0001092AB031092AA0302C0138212821093A9
:103AF000A9030093A803DF91CF911F910F9108951F
:103B0000A0E0B0E0E6E8FDE10C946D22EC01009746
:103B100021F4CB010E94531CB8C0FC01E60FF71F33
:103B20009C0122503109E217F30708F4ACC0D90117
:103B30000D911C91119706171707B0F0053011056C
:103B400008F49FC0C80104978617970708F499C026
:103B500002501109061B170B019311936D937C936F
:103B6000CF010E94E81C8DC05B01A01AB10A4C0174
:103B7000800E911EA091AA03B091AB0340E050E0EB
:103B8000E12CF12C109709F44AC0A815B905D1F51C
:103B90006D907C901197630182E0C80ED11CCA140D
:103BA000DB0480F1A3014A195B096A0182E0C80EB7
:103BB000D11C1296BC9012971396AC91B5E0CB161F
:103BC000D10440F0B282A38351834083D9016D9325
:103BD0007C930AC00E5F1F4FC301800F911FF90134
:103BE00091838083EB2DFA2FE114F10431F0D7019A
:103BF0001396FC93EE93129744C0F093AB03E093BB
:103C0000AA033FC08D919C9111974817590708F45A
:103C1000AC017D0112960D90BC91A02DB3CF809187
:103C2000A8039091A90388159905E1F44617570751
:103C3000C8F480910C0190910D01009741F48DB76B
:103C40009EB74091100150911101841B950BE8170C
:103C5000F907C8F4F093A903E093A803F90171836D
:103C600060830FC0CB010E94531C7C01009759F068
:103C7000A801BE010E94571ECE010E94E81CC70188
:103C800004C0CE0102C080E090E0CDB7DEB7EEE028
:103C90000C94892281E090E0F8940C94A022911178
:103CA000089581548A5108F4805E855A0895FB0175
:103CB000DC0102C001900D9241505040D8F70895A8
:103CC000FB01DC018D91019080190110D9F3990B52
:103CD0000895FB01DC0101900D920020E1F70895A9
:103CE000FB01DC014150504048F001900D92002052
:103CF000C9F701C01D9241505040E0F70895FB0103
:103D000051915523A9F0BF01DC014D914517411197
:103D1000E1F759F4CD010190002049F04D91401593
:103D20004111C9F3FB014111EFCF81E090E0019710
:103D30000895EF920F931F93CF93DF93E80147FD10
:103D400002C034E001C034E1E42F440FFF0BF7FF61
:103D500003C0F195E195F109E32E022F2E2FAE015C
:103D60000E94C91ECE01DF91CF911F910F91EF905C
:103D70000895FB01DC0105900D920020E1F7089504
:103D8000FC0105900020E9F7809590958E0F9F1F0C
:103D900008954F925F926F927F929F92AF92BF92DF
:103DA000CF92DF92EF92FF920F931F93CF93DF9307
:103DB000CDB7DEB729970FB6F894DEBF0FBECDBFE3
:103DC0006A01122FB02E2BE3201720F0FF24F3946A
:103DD000F00E02C0BCE3FB2E0F2D27E0AE014F5FBB
:103DE0005F4F0E945720AC018981982F99709130C4
:103DF00031F0E1FC06C0E0FE06C090E205C09DE2A5
:103E000003C09BE201C090E0EE2DE07183FF3CC057
:103E1000911102C083E001C084E0811718F4212FC2
:103E2000281B01C020E0E1110BC0F601822F30E217
:103E3000882319F031938150FBCFC20ED11C20E0B2
:103E4000992329F0D6019C93F60131966F01C601A2
:103E50000396E2FE0AC03EE4D6013C9341E411968B
:103E60004C93119712963C9306C03EE6F6013083C0
:103E700041E641833283FC01322F40E2332309F4CF
:103E800042C041933150FACF82FF44C0911102C029
:103E900083E001C084E0811718F4212F281B01C0A2
:103EA00020E0E1110BC0F601822F30E2882319F0E7
:103EB00031938150FBCFC20ED11C20E0992329F011
:103EC000D6019C93F60131966F01C6010396E2FE7E
:103ED0000BC039E4D6013C933EE411963C93119714
:103EE00036E412963C9307C039E6F60130833EE68D
:103EF000318336E63283FC01322F40E2332319F05E
:103F000041933150FBCFFC01E20FF11D10828EEF87
:103F10009FEFB7C0F1E0911101C0F0E06F2F70E0AA
:103F20001416150624F49A012F5F3F4F02C021E0BA
:103F300030E0260F371FBB2029F06B2D70E06F5F3C
:103F40007F4F02C060E070E0260F371F612F70E0E6
:103F5000261737071CF4121B212F01C020E03E2D2D
:103F6000387159F4D601322F60E2332319F06D9382
:103F70003150FBCFC20ED11C20E0FF2331F0D6011F
:103F80009C93B6016F5F7F4F6B01E1110BC0F6018F
:103F9000922F30E3992319F031939150FBCFC20E49
:103FA000D11C20E09F2D940F3A81782F7071A72E9D
:103FB00084FF03C0313309F49150191624F4993069
:103FC00018F098E001C091E0E42F852F57FF02C060
:103FD000E0E080E06E2F782FE0E0F0E0AEE29A2E95
:103FE0003A01691A71082A01461A570A0B2D10E086
:103FF0001195019511096F3F8FEF780729F4D601CC
:104000009C92C60101966C014617570784F066160C
:1040100077066CF47F01E40CF51CA1E0B0E0AC0F76
:10402000BD1FEA0EFB1ED7011196BC9002C090E3A3
:10403000B92E615071093196C60101967C01601755
:10404000710724F0D601BC926C01D5CF64177507B7
:1040500041F4363320F4353321F4A11002C081E35A
:10406000B82EF601B082F701822F90E2882319F072
:1040700091938150FBCFF701E20FF11D108280E098
:1040800090E029960FB6F894DEBF0FBECDBFDF914A
:10409000CF911F910F91FF90EF90DF90CF90BF9045
:1040A000AF909F907F906F905F904F9008952830D1
:1040B00008F027E03327DA01990F311D87FD916061
:1040C00000966105710539F432602E5F3D9330E34F
:1040D0002A95E1F708959F3F30F08038710561051A
:1040E00009F03C5F3C5F3D93913008F08068911D82
:1040F000DF93CF931F930F93FF92EF92192F987F27
:104100009695E92F96959695E90FFF27EE53FB4F6D
:1041100099273327EE24FF24A701E701059008948F
:10412000079428F4360FE71EF81E491F511D660F2D
:10413000771F881F991F0694A1F70590079428F40C
:10414000E70EF81E491F561FC11D770F881F991FC4
:10415000661F0694A1F70590079428F4F80E491FEE
:10416000561FC71FD11D880F991F661F771F069402
:10417000A1F70590079420F4490F561FC71FD81FB9
:10418000990F661F771F881F0694A9F784911095D1
:10419000177041F0D695C79557954795F794E794D2
:1041A0001A95C1F7E8E6F4E06894159015913591F9
:1041B0006591959105907FE27395E118F10A430BA3
:1041C000560BC90BD009C0F7E10CF11E431F561F57
:1041D000C91FD01D7EF4703311F48A95E6CFE894A0
:1041E000015030F0080F0AF40027021708F4202FBE
:1041F0002395022F7A3328F079E37D932A95E9F706
:1042000010C07D932A9589F6069497956795379502
:1042100017951794E118F10A430B560BC90BD009F7
:1042200098F023957E9173957A3308F070E37C9330
:104230002013B8F77E9170617D9330F0839571E320
:104240007D9370E32A95E1F71124EF90FF900F9191
:104250001F91CF91DF91992787FD909508950E9436
:10426000712108F481E00895E89409C097FB3EF4B9
:1042700090958095709561957F4F8F4F9F4F9923B3
:10428000A9F0F92F96E9BB279395F6958795779531
:104290006795B795F111F8CFFAF4BB0F11F460FFF1
:1042A0001BC06F5F7F4F8F4F9F4F16C0882311F049
:1042B00096E911C0772321F09EE8872F762F05C05D
:1042C000662371F096E8862F70E060E02AF09A95F8
:1042D000660F771F881FDAF7880F9695879597F9ED
:1042E0000895990F0008550FAA0BE0E8FEEF161687
:1042F0001706E807F907C0F012161306E407F507DA
:1043000098F0621B730B840B950B39F40A2661F04D
:10431000232B242B252B21F408950A2609F4A140F0
:10432000A6958FEF811D811D08950E94A8210C94F0
:1043300019220E940B2238F00E94122220F09523AD
:1043400011F00C9402220C94082211240C944D229A
:104350000E942A2270F3959FC1F3950F50E0551FDC
:10436000629FF001729FBB27F00DB11D639FAA27CA
:10437000F00DB11DAA1F649F6627B00DA11D661F19
:10438000829F2227B00DA11D621F739FB00DA11D3A
:10439000621F839FA00D611D221F749F3327A00DF4
:1043A000611D231F849F600D211D822F762F6A2F90
:1043B00011249F5750409AF0F1F088234AF0EE0FF5
:1043C000FF1FBB1F661F771F881F91505040A9F722
:1043D0009E3F510580F00C9402220C944D225F3FC9
:1043E000E4F3983ED4F3869577956795B795F7955E
:1043F000E7959F5FC1F7FE2B880F911D96958795D6
:1044000097F9089597F99F6780E870E060E0089554
:104410009FEF80EC089500240A94161617061806DC
:104420000906089500240A941216130614060506B8
:104430000895092E0394000C11F4882352F0BB0F49
:1044400040F4BF2B11F460FF04C06F5F7F4F8F4FAC
:104450009F4F089557FD9058440F551F59F05F3FE7
:1044600071F04795880F97FB991F61F09F3F79F096
:1044700087950895121613061406551FF2CF469518
:10448000F1DF08C0161617061806991FF1CF86959A
:104490007105610508940895E894BB27662777277E
:1044A000CB0197F90895F999FECF92BD81BDF89A95
:1044B000992780B50895262FF999FECF1FBA92BD8E
:1044C00081BD20BD0FB6F894FA9AF99A0FBE0196F5
:1044D00008952F923F924F925F926F927F928F92A8
:1044E0009F92AF92BF92CF92DF92EF92FF920F9383
:1044F0001F93CF93DF93CDB7DEB7CA1BDB0B0FB68D
:10450000F894DEBF0FBECDBF09942A883988488849
:104510005F846E847D848C849B84AA84B984C884DF
:10452000DF80EE80FD800C811B81AA81B981CE0FD6
:10453000D11D0FB6F894DEBF0FBECDBFED010895BB
:1045400012E0C2EBD2E004C0FE010E94351B2196AE
:0A455000C33BD107C9F7F894FFCF71
:10455A00010000F0C10000F0C1FF01010000AC033E
:10456A008000000000006203DE022B0309031D0322
:10457A00A903000000007D0ADE02000000003004EA
:10458A00DE0284049C0417042F040D0A0020200074
:10459A00424F44593A004E554D4245523A20005333
:1045AA004D533A200031003000436F6D70617274D0
:1045BA006D656E7420312054656D703A2000436F2A
:1045CA006D706172746D656E7420322054656D7001
:1045DA003A200041542B434D47533D2200274300C4
:1045EA00504152534520534D5320544F20434F4D71
:1045FA004D414E443A200033323133006E616E0031
:0A460A00696E66006F7666002E00F0
:107E0000112484B714BE81FFF0D085E080938100F7
:107E100082E08093C00088E18093C10086E0809377
:107E2000C20080E18093C4008EE0C9D0259A86E02C
:107E300020E33CEF91E0309385002093840096BBD3
:107E4000B09BFECF1D9AA8958150A9F7CC24DD24C4
:107E500088248394B5E0AB2EA1E19A2EF3E0BF2EE7
:107E6000A2D0813461F49FD0082FAFD0023811F036
:107E7000013811F484E001C083E08DD089C08234E0
:107E800011F484E103C0853419F485E0A6D080C0E4
:107E9000853579F488D0E82EFF2485D0082F10E0AE
:107EA000102F00270E291F29000F111F8ED06801E7
:107EB0006FC0863521F484E090D080E0DECF843638
:107EC00009F040C070D06FD0082F6DD080E0C81688
:107ED00080E7D80618F4F601B7BEE895C0E0D1E017
:107EE00062D089930C17E1F7F0E0CF16F0E7DF06D8
:107EF00018F0F601B7BEE89568D007B600FCFDCFD4
:107F0000A601A0E0B1E02C9130E011968C91119780
:107F100090E0982F8827822B932B1296FA010C0160
:107F200087BEE89511244E5F5F4FF1E0A038BF0790
:107F300051F7F601A7BEE89507B600FCFDCF97BE46
:107F4000E89526C08437B1F42ED02DD0F82E2BD052
:107F50003CD0F601EF2C8F010F5F1F4F84911BD097
:107F6000EA94F801C1F70894C11CD11CFA94CF0C13
:107F7000D11C0EC0853739F428D08EE10CD085E9AC
:107F80000AD08FE07ACF813511F488E018D01DD067
:107F900080E101D065CF982F8091C00085FFFCCF94
:107FA0009093C60008958091C00087FFFCCF809118
:107FB000C00084FD01C0A8958091C6000895E0E648
:107FC000F0E098E1908380830895EDDF803219F02E
:107FD00088E0F5DFFFCF84E1DECF1F93182FE3DFCA
:107FE0001150E9F7F2DF1F91089580E0E8DFEE27F6
:047FF000FF270994CA
:027FFE00040479
:0400000300007E007B
:00000001FF
